{
  "_format": "hh-sol-artifact-1",
  "contractName": "YachtClubMembership",
  "sourceName": "contracts/YachtClubMembership.sol",
  "abi": [
    {
      "inputs": [
        {
          "internalType": "address",
          "name": "authorizedMinter_",
          "type": "address"
        },
        {
          "internalType": "address",
          "name": "royaltyRecipient_",
          "type": "address"
        },
        {
          "internalType": "uint96",
          "name": "royaltyFraction_",
          "type": "uint96"
        }
      ],
      "stateMutability": "nonpayable",
      "type": "constructor"
    },
    {
      "inputs": [
        {
          "internalType": "address",
          "name": "sender",
          "type": "address"
        },
        {
          "internalType": "uint256",
          "name": "tokenId",
          "type": "uint256"
        },
        {
          "internalType": "address",
          "name": "owner",
          "type": "address"
        }
      ],
      "name": "ERC721IncorrectOwner",
      "type": "error"
    },
    {
      "inputs": [
        {
          "internalType": "address",
          "name": "operator",
          "type": "address"
        },
        {
          "internalType": "uint256",
          "name": "tokenId",
          "type": "uint256"
        }
      ],
      "name": "ERC721InsufficientApproval",
      "type": "error"
    },
    {
      "inputs": [
        {
          "internalType": "address",
          "name": "approver",
          "type": "address"
        }
      ],
      "name": "ERC721InvalidApprover",
      "type": "error"
    },
    {
      "inputs": [
        {
          "internalType": "address",
          "name": "operator",
          "type": "address"
        }
      ],
      "name": "ERC721InvalidOperator",
      "type": "error"
    },
    {
      "inputs": [
        {
          "internalType": "address",
          "name": "owner",
          "type": "address"
        }
      ],
      "name": "ERC721InvalidOwner",
      "type": "error"
    },
    {
      "inputs": [
        {
          "internalType": "address",
          "name": "receiver",
          "type": "address"
        }
      ],
      "name": "ERC721InvalidReceiver",
      "type": "error"
    },
    {
      "inputs": [
        {
          "internalType": "address",
          "name": "sender",
          "type": "address"
        }
      ],
      "name": "ERC721InvalidSender",
      "type": "error"
    },
    {
      "inputs": [
        {
          "internalType": "uint256",
          "name": "tokenId",
          "type": "uint256"
        }
      ],
      "name": "ERC721NonexistentToken",
      "type": "error"
    },
    {
      "inputs": [
        {
          "internalType": "address",
          "name": "owner",
          "type": "address"
        }
      ],
      "name": "OwnableInvalidOwner",
      "type": "error"
    },
    {
      "inputs": [
        {
          "internalType": "address",
          "name": "account",
          "type": "address"
        }
      ],
      "name": "OwnableUnauthorizedAccount",
      "type": "error"
    },
    {
      "inputs": [],
      "name": "ReentrancyGuardReentrantCall",
      "type": "error"
    },
    {
      "anonymous": false,
      "inputs": [
        {
          "indexed": true,
          "internalType": "address",
          "name": "owner",
          "type": "address"
        },
        {
          "indexed": true,
          "internalType": "address",
          "name": "approved",
          "type": "address"
        },
        {
          "indexed": true,
          "internalType": "uint256",
          "name": "tokenId",
          "type": "uint256"
        }
      ],
      "name": "Approval",
      "type": "event"
    },
    {
      "anonymous": false,
      "inputs": [
        {
          "indexed": true,
          "internalType": "address",
          "name": "owner",
          "type": "address"
        },
        {
          "indexed": true,
          "internalType": "address",
          "name": "operator",
          "type": "address"
        },
        {
          "indexed": false,
          "internalType": "bool",
          "name": "approved",
          "type": "bool"
        }
      ],
      "name": "ApprovalForAll",
      "type": "event"
    },
    {
      "anonymous": false,
      "inputs": [
        {
          "indexed": true,
          "internalType": "address",
          "name": "oldMinter",
          "type": "address"
        },
        {
          "indexed": true,
          "internalType": "address",
          "name": "newMinter",
          "type": "address"
        }
      ],
      "name": "AuthorizedMinterUpdated",
      "type": "event"
    },
    {
      "anonymous": false,
      "inputs": [
        {
          "indexed": false,
          "internalType": "uint256",
          "name": "_fromTokenId",
          "type": "uint256"
        },
        {
          "indexed": false,
          "internalType": "uint256",
          "name": "_toTokenId",
          "type": "uint256"
        }
      ],
      "name": "BatchMetadataUpdate",
      "type": "event"
    },
    {
      "anonymous": false,
      "inputs": [
        {
          "indexed": true,
          "internalType": "address",
          "name": "marketplace",
          "type": "address"
        },
        {
          "indexed": false,
          "internalType": "bool",
          "name": "approved",
          "type": "bool"
        }
      ],
      "name": "MarketplaceApprovalUpdated",
      "type": "event"
    },
    {
      "anonymous": false,
      "inputs": [
        {
          "indexed": true,
          "internalType": "uint256",
          "name": "tokenId",
          "type": "uint256"
        },
        {
          "indexed": false,
          "internalType": "enum YachtClubMembership.MemberTier",
          "name": "oldTier",
          "type": "uint8"
        },
        {
          "indexed": false,
          "internalType": "enum YachtClubMembership.MemberTier",
          "name": "newTier",
          "type": "uint8"
        }
      ],
      "name": "MemberTierUpdated",
      "type": "event"
    },
    {
      "anonymous": false,
      "inputs": [
        {
          "indexed": true,
          "internalType": "uint256",
          "name": "tokenId",
          "type": "uint256"
        },
        {
          "indexed": true,
          "internalType": "address",
          "name": "member",
          "type": "address"
        },
        {
          "indexed": false,
          "internalType": "enum YachtClubMembership.MemberTier",
          "name": "tier",
          "type": "uint8"
        },
        {
          "indexed": false,
          "internalType": "string",
          "name": "email",
          "type": "string"
        }
      ],
      "name": "MembershipMinted",
      "type": "event"
    },
    {
      "anonymous": false,
      "inputs": [
        {
          "indexed": false,
          "internalType": "uint256",
          "name": "_tokenId",
          "type": "uint256"
        }
      ],
      "name": "MetadataUpdate",
      "type": "event"
    },
    {
      "anonymous": false,
      "inputs": [
        {
          "indexed": true,
          "internalType": "uint256",
          "name": "tokenId",
          "type": "uint256"
        },
        {
          "indexed": false,
          "internalType": "string",
          "name": "cardId",
          "type": "string"
        }
      ],
      "name": "NFCCardDeactivated",
      "type": "event"
    },
    {
      "anonymous": false,
      "inputs": [
        {
          "indexed": true,
          "internalType": "uint256",
          "name": "tokenId",
          "type": "uint256"
        },
        {
          "indexed": false,
          "internalType": "string",
          "name": "cardId",
          "type": "string"
        },
        {
          "indexed": false,
          "internalType": "string",
          "name": "serialNumber",
          "type": "string"
        }
      ],
      "name": "NFCCardLinked",
      "type": "event"
    },
    {
      "anonymous": false,
      "inputs": [
        {
          "indexed": true,
          "internalType": "uint256",
          "name": "tokenId",
          "type": "uint256"
        },
        {
          "indexed": false,
          "internalType": "string",
          "name": "cardId",
          "type": "string"
        }
      ],
      "name": "NFCCardUnlinked",
      "type": "event"
    },
    {
      "anonymous": false,
      "inputs": [
        {
          "indexed": true,
          "internalType": "address",
          "name": "previousOwner",
          "type": "address"
        },
        {
          "indexed": true,
          "internalType": "address",
          "name": "newOwner",
          "type": "address"
        }
      ],
      "name": "OwnershipTransferred",
      "type": "event"
    },
    {
      "anonymous": false,
      "inputs": [
        {
          "indexed": true,
          "internalType": "address",
          "name": "from",
          "type": "address"
        },
        {
          "indexed": true,
          "internalType": "address",
          "name": "to",
          "type": "address"
        },
        {
          "indexed": true,
          "internalType": "uint256",
          "name": "tokenId",
          "type": "uint256"
        }
      ],
      "name": "Transfer",
      "type": "event"
    },
    {
      "anonymous": false,
      "inputs": [
        {
          "indexed": false,
          "internalType": "bool",
          "name": "restricted",
          "type": "bool"
        }
      ],
      "name": "TransferRestrictionUpdated",
      "type": "event"
    },
    {
      "inputs": [
        {
          "internalType": "address",
          "name": "to",
          "type": "address"
        },
        {
          "internalType": "uint256",
          "name": "tokenId",
          "type": "uint256"
        }
      ],
      "name": "approve",
      "outputs": [],
      "stateMutability": "nonpayable",
      "type": "function"
    },
    {
      "inputs": [
        {
          "internalType": "address",
          "name": "",
          "type": "address"
        }
      ],
      "name": "approvedMarketplaces",
      "outputs": [
        {
          "internalType": "bool",
          "name": "",
          "type": "bool"
        }
      ],
      "stateMutability": "view",
      "type": "function"
    },
    {
      "inputs": [],
      "name": "authorizedMinter",
      "outputs": [
        {
          "internalType": "address",
          "name": "",
          "type": "address"
        }
      ],
      "stateMutability": "view",
      "type": "function"
    },
    {
      "inputs": [
        {
          "internalType": "address",
          "name": "owner",
          "type": "address"
        }
      ],
      "name": "balanceOf",
      "outputs": [
        {
          "internalType": "uint256",
          "name": "",
          "type": "uint256"
        }
      ],
      "stateMutability": "view",
      "type": "function"
    },
    {
      "inputs": [
        {
          "internalType": "uint256",
          "name": "tokenId",
          "type": "uint256"
        }
      ],
      "name": "deactivateMembership",
      "outputs": [],
      "stateMutability": "nonpayable",
      "type": "function"
    },
    {
      "inputs": [
        {
          "internalType": "uint256",
          "name": "tokenId",
          "type": "uint256"
        }
      ],
      "name": "deactivateNFCCard",
      "outputs": [],
      "stateMutability": "nonpayable",
      "type": "function"
    },
    {
      "inputs": [
        {
          "internalType": "uint256",
          "name": "tokenId",
          "type": "uint256"
        }
      ],
      "name": "getApproved",
      "outputs": [
        {
          "internalType": "address",
          "name": "",
          "type": "address"
        }
      ],
      "stateMutability": "view",
      "type": "function"
    },
    {
      "inputs": [
        {
          "internalType": "uint256",
          "name": "tokenId",
          "type": "uint256"
        }
      ],
      "name": "getMemberInfo",
      "outputs": [
        {
          "components": [
            {
              "internalType": "enum YachtClubMembership.MemberTier",
              "name": "tier",
              "type": "uint8"
            },
            {
              "internalType": "uint256",
              "name": "mintedAt",
              "type": "uint256"
            },
            {
              "internalType": "string",
              "name": "email",
              "type": "string"
            },
            {
              "internalType": "bool",
              "name": "active",
              "type": "bool"
            },
            {
              "components": [
                {
                  "internalType": "string",
                  "name": "cardId",
                  "type": "string"
                },
                {
                  "internalType": "string",
                  "name": "serialNumber",
                  "type": "string"
                },
                {
                  "internalType": "uint256",
                  "name": "linkedAt",
                  "type": "uint256"
                },
                {
                  "internalType": "bool",
                  "name": "isActive",
                  "type": "bool"
                },
                {
                  "internalType": "string",
                  "name": "cardType",
                  "type": "string"
                }
              ],
              "internalType": "struct YachtClubMembership.NFCCard",
              "name": "nfcCard",
              "type": "tuple"
            },
            {
              "internalType": "bool",
              "name": "hasNFCCard",
              "type": "bool"
            }
          ],
          "internalType": "struct YachtClubMembership.MemberInfo",
          "name": "",
          "type": "tuple"
        }
      ],
      "stateMutability": "view",
      "type": "function"
    },
    {
      "inputs": [
        {
          "internalType": "string",
          "name": "cardId",
          "type": "string"
        }
      ],
      "name": "getNFCCardInfo",
      "outputs": [
        {
          "internalType": "uint256",
          "name": "tokenId",
          "type": "uint256"
        },
        {
          "internalType": "bool",
          "name": "isActive",
          "type": "bool"
        },
        {
          "internalType": "string",
          "name": "cardType",
          "type": "string"
        }
      ],
      "stateMutability": "view",
      "type": "function"
    },
    {
      "inputs": [
        {
          "internalType": "address",
          "name": "member",
          "type": "address"
        }
      ],
      "name": "getTokenIdByMember",
      "outputs": [
        {
          "internalType": "uint256",
          "name": "",
          "type": "uint256"
        }
      ],
      "stateMutability": "view",
      "type": "function"
    },
    {
      "inputs": [
        {
          "internalType": "address",
          "name": "owner",
          "type": "address"
        },
        {
          "internalType": "address",
          "name": "operator",
          "type": "address"
        }
      ],
      "name": "isApprovedForAll",
      "outputs": [
        {
          "internalType": "bool",
          "name": "",
          "type": "bool"
        }
      ],
      "stateMutability": "view",
      "type": "function"
    },
    {
      "inputs": [
        {
          "internalType": "address",
          "name": "account",
          "type": "address"
        }
      ],
      "name": "isMember",
      "outputs": [
        {
          "internalType": "bool",
          "name": "",
          "type": "bool"
        }
      ],
      "stateMutability": "view",
      "type": "function"
    },
    {
      "inputs": [
        {
          "internalType": "uint256",
          "name": "tokenId",
          "type": "uint256"
        },
        {
          "internalType": "string",
          "name": "cardId",
          "type": "string"
        },
        {
          "internalType": "string",
          "name": "serialNumber",
          "type": "string"
        },
        {
          "internalType": "string",
          "name": "cardType",
          "type": "string"
        }
      ],
      "name": "linkNFCCard",
      "outputs": [],
      "stateMutability": "nonpayable",
      "type": "function"
    },
    {
      "inputs": [
        {
          "internalType": "uint256",
          "name": "",
          "type": "uint256"
        }
      ],
      "name": "memberInfo",
      "outputs": [
        {
          "internalType": "enum YachtClubMembership.MemberTier",
          "name": "tier",
          "type": "uint8"
        },
        {
          "internalType": "uint256",
          "name": "mintedAt",
          "type": "uint256"
        },
        {
          "internalType": "string",
          "name": "email",
          "type": "string"
        },
        {
          "internalType": "bool",
          "name": "active",
          "type": "bool"
        },
        {
          "components": [
            {
              "internalType": "string",
              "name": "cardId",
              "type": "string"
            },
            {
              "internalType": "string",
              "name": "serialNumber",
              "type": "string"
            },
            {
              "internalType": "uint256",
              "name": "linkedAt",
              "type": "uint256"
            },
            {
              "internalType": "bool",
              "name": "isActive",
              "type": "bool"
            },
            {
              "internalType": "string",
              "name": "cardType",
              "type": "string"
            }
          ],
          "internalType": "struct YachtClubMembership.NFCCard",
          "name": "nfcCard",
          "type": "tuple"
        },
        {
          "internalType": "bool",
          "name": "hasNFCCard",
          "type": "bool"
        }
      ],
      "stateMutability": "view",
      "type": "function"
    },
    {
      "inputs": [
        {
          "internalType": "address",
          "name": "",
          "type": "address"
        }
      ],
      "name": "memberTokenId",
      "outputs": [
        {
          "internalType": "uint256",
          "name": "",
          "type": "uint256"
        }
      ],
      "stateMutability": "view",
      "type": "function"
    },
    {
      "inputs": [
        {
          "internalType": "address",
          "name": "to",
          "type": "address"
        },
        {
          "internalType": "enum YachtClubMembership.MemberTier",
          "name": "tier",
          "type": "uint8"
        },
        {
          "internalType": "string",
          "name": "email",
          "type": "string"
        },
        {
          "internalType": "string",
          "name": "tokenURI_",
          "type": "string"
        }
      ],
      "name": "mintMembership",
      "outputs": [
        {
          "internalType": "uint256",
          "name": "",
          "type": "uint256"
        }
      ],
      "stateMutability": "nonpayable",
      "type": "function"
    },
    {
      "inputs": [],
      "name": "name",
      "outputs": [
        {
          "internalType": "string",
          "name": "",
          "type": "string"
        }
      ],
      "stateMutability": "view",
      "type": "function"
    },
    {
      "inputs": [
        {
          "internalType": "string",
          "name": "",
          "type": "string"
        }
      ],
      "name": "nfcCardExists",
      "outputs": [
        {
          "internalType": "bool",
          "name": "",
          "type": "bool"
        }
      ],
      "stateMutability": "view",
      "type": "function"
    },
    {
      "inputs": [
        {
          "internalType": "string",
          "name": "",
          "type": "string"
        }
      ],
      "name": "nfcCardToToken",
      "outputs": [
        {
          "internalType": "uint256",
          "name": "",
          "type": "uint256"
        }
      ],
      "stateMutability": "view",
      "type": "function"
    },
    {
      "inputs": [],
      "name": "owner",
      "outputs": [
        {
          "internalType": "address",
          "name": "",
          "type": "address"
        }
      ],
      "stateMutability": "view",
      "type": "function"
    },
    {
      "inputs": [
        {
          "internalType": "uint256",
          "name": "tokenId",
          "type": "uint256"
        }
      ],
      "name": "ownerOf",
      "outputs": [
        {
          "internalType": "address",
          "name": "",
          "type": "address"
        }
      ],
      "stateMutability": "view",
      "type": "function"
    },
    {
      "inputs": [
        {
          "internalType": "uint256",
          "name": "tokenId",
          "type": "uint256"
        }
      ],
      "name": "reactivateMembership",
      "outputs": [],
      "stateMutability": "nonpayable",
      "type": "function"
    },
    {
      "inputs": [
        {
          "internalType": "uint256",
          "name": "tokenId",
          "type": "uint256"
        }
      ],
      "name": "reactivateNFCCard",
      "outputs": [],
      "stateMutability": "nonpayable",
      "type": "function"
    },
    {
      "inputs": [],
      "name": "renounceOwnership",
      "outputs": [],
      "stateMutability": "nonpayable",
      "type": "function"
    },
    {
      "inputs": [
        {
          "internalType": "uint256",
          "name": "tokenId",
          "type": "uint256"
        },
        {
          "internalType": "uint256",
          "name": "salePrice",
          "type": "uint256"
        }
      ],
      "name": "royaltyInfo",
      "outputs": [
        {
          "internalType": "address",
          "name": "receiver",
          "type": "address"
        },
        {
          "internalType": "uint256",
          "name": "royaltyAmount",
          "type": "uint256"
        }
      ],
      "stateMutability": "view",
      "type": "function"
    },
    {
      "inputs": [
        {
          "internalType": "address",
          "name": "from",
          "type": "address"
        },
        {
          "internalType": "address",
          "name": "to",
          "type": "address"
        },
        {
          "internalType": "uint256",
          "name": "tokenId",
          "type": "uint256"
        }
      ],
      "name": "safeTransferFrom",
      "outputs": [],
      "stateMutability": "nonpayable",
      "type": "function"
    },
    {
      "inputs": [
        {
          "internalType": "address",
          "name": "from",
          "type": "address"
        },
        {
          "internalType": "address",
          "name": "to",
          "type": "address"
        },
        {
          "internalType": "uint256",
          "name": "tokenId",
          "type": "uint256"
        },
        {
          "internalType": "bytes",
          "name": "data",
          "type": "bytes"
        }
      ],
      "name": "safeTransferFrom",
      "outputs": [],
      "stateMutability": "nonpayable",
      "type": "function"
    },
    {
      "inputs": [
        {
          "internalType": "address",
          "name": "operator",
          "type": "address"
        },
        {
          "internalType": "bool",
          "name": "approved",
          "type": "bool"
        }
      ],
      "name": "setApprovalForAll",
      "outputs": [],
      "stateMutability": "nonpayable",
      "type": "function"
    },
    {
      "inputs": [
        {
          "internalType": "address",
          "name": "_authorizedMinter",
          "type": "address"
        }
      ],
      "name": "setAuthorizedMinter",
      "outputs": [],
      "stateMutability": "nonpayable",
      "type": "function"
    },
    {
      "inputs": [
        {
          "internalType": "address",
          "name": "marketplace",
          "type": "address"
        },
        {
          "internalType": "bool",
          "name": "approved",
          "type": "bool"
        }
      ],
      "name": "setMarketplaceApproval",
      "outputs": [],
      "stateMutability": "nonpayable",
      "type": "function"
    },
    {
      "inputs": [
        {
          "internalType": "address",
          "name": "recipient",
          "type": "address"
        },
        {
          "internalType": "uint96",
          "name": "fraction",
          "type": "uint96"
        }
      ],
      "name": "setRoyaltyInfo",
      "outputs": [],
      "stateMutability": "nonpayable",
      "type": "function"
    },
    {
      "inputs": [
        {
          "internalType": "bool",
          "name": "_restricted",
          "type": "bool"
        }
      ],
      "name": "setTransferRestricted",
      "outputs": [],
      "stateMutability": "nonpayable",
      "type": "function"
    },
    {
      "inputs": [
        {
          "internalType": "bytes4",
          "name": "interfaceId",
          "type": "bytes4"
        }
      ],
      "name": "supportsInterface",
      "outputs": [
        {
          "internalType": "bool",
          "name": "",
          "type": "bool"
        }
      ],
      "stateMutability": "view",
      "type": "function"
    },
    {
      "inputs": [],
      "name": "symbol",
      "outputs": [
        {
          "internalType": "string",
          "name": "",
          "type": "string"
        }
      ],
      "stateMutability": "view",
      "type": "function"
    },
    {
      "inputs": [
        {
          "internalType": "uint256",
          "name": "tokenId",
          "type": "uint256"
        }
      ],
      "name": "tokenURI",
      "outputs": [
        {
          "internalType": "string",
          "name": "",
          "type": "string"
        }
      ],
      "stateMutability": "view",
      "type": "function"
    },
    {
      "inputs": [],
      "name": "totalSupply",
      "outputs": [
        {
          "internalType": "uint256",
          "name": "",
          "type": "uint256"
        }
      ],
      "stateMutability": "view",
      "type": "function"
    },
    {
      "inputs": [
        {
          "internalType": "address",
          "name": "from",
          "type": "address"
        },
        {
          "internalType": "address",
          "name": "to",
          "type": "address"
        },
        {
          "internalType": "uint256",
          "name": "tokenId",
          "type": "uint256"
        }
      ],
      "name": "transferFrom",
      "outputs": [],
      "stateMutability": "nonpayable",
      "type": "function"
    },
    {
      "inputs": [
        {
          "internalType": "address",
          "name": "newOwner",
          "type": "address"
        }
      ],
      "name": "transferOwnership",
      "outputs": [],
      "stateMutability": "nonpayable",
      "type": "function"
    },
    {
      "inputs": [],
      "name": "transfersRestricted",
      "outputs": [
        {
          "internalType": "bool",
          "name": "",
          "type": "bool"
        }
      ],
      "stateMutability": "view",
      "type": "function"
    },
    {
      "inputs": [
        {
          "internalType": "uint256",
          "name": "tokenId",
          "type": "uint256"
        }
      ],
      "name": "unlinkNFCCard",
      "outputs": [],
      "stateMutability": "nonpayable",
      "type": "function"
    },
    {
      "inputs": [
        {
          "internalType": "uint256",
          "name": "tokenId",
          "type": "uint256"
        },
        {
          "internalType": "enum YachtClubMembership.MemberTier",
          "name": "newTier",
          "type": "uint8"
        }
      ],
      "name": "updateMemberTier",
      "outputs": [],
      "stateMutability": "nonpayable",
      "type": "function"
    },
    {
      "inputs": [
        {
          "internalType": "string",
          "name": "cardId",
          "type": "string"
        }
      ],
      "name": "verifyNFCCard",
      "outputs": [
        {
          "internalType": "bool",
          "name": "isValid",
          "type": "bool"
        },
        {
          "internalType": "address",
          "name": "memberAddress",
          "type": "address"
        },
        {
          "internalType": "enum YachtClubMembership.MemberTier",
          "name": "tier",
          "type": "uint8"
        }
      ],
      "stateMutability": "view",
      "type": "function"
    }
  ],
  "bytecode": "0x6080604052600b805460ff60a01b1916600160a01b1790553480156200002457600080fd5b5060405162003a9a38038062003a9a8339810160408190526200004791620001a3565b3360405180606001604052806023815260200162003a77602391396040805180820190915260058152644c5359434d60d81b602082015260006200008c8382620002a2565b5060016200009b8282620002a2565b5050506001600160a01b038116620000cd57604051631e4fbdf760e01b81526000600482015260240160405180910390fd5b620000d88162000134565b506001600855600b80546001600160a01b0319166001600160a01b03858116919091179091558216600160a01b6001600160601b0383160217600a556009805490600062000126836200036e565b919050555050505062000396565b600780546001600160a01b038381166001600160a01b0319831681179093556040519116919082907f8be0079c531659141344cd1fd0a4f28419497f9722a3daafe3b4186f6b6457e090600090a35050565b80516001600160a01b03811681146200019e57600080fd5b919050565b600080600060608486031215620001b957600080fd5b620001c48462000186565b9250620001d46020850162000186565b60408501519092506001600160601b0381168114620001f257600080fd5b809150509250925092565b634e487b7160e01b600052604160045260246000fd5b600181811c908216806200022857607f821691505b6020821081036200024957634e487b7160e01b600052602260045260246000fd5b50919050565b601f8211156200029d57600081815260208120601f850160051c81016020861015620002785750805b601f850160051c820191505b81811015620002995782815560010162000284565b5050505b505050565b81516001600160401b03811115620002be57620002be620001fd565b620002d681620002cf845462000213565b846200024f565b602080601f8311600181146200030e5760008415620002f55750858301515b600019600386901b1c1916600185901b17855562000299565b600085815260208120601f198616915b828110156200033f578886015182559484019460019091019084016200031e565b50858210156200035e5787850151600019600388901b60f8161c191681555b5050505050600190811b01905550565b6000600182016200038f57634e487b7160e01b600052601160045260246000fd5b5060010190565b6136d180620003a66000396000f3fe608060405234801561001057600080fd5b506004361061025e5760003560e01c806370bb0a1611610146578063bd26ed33116100c3578063d90d0ee611610087578063d90d0ee6146105a5578063da104da2146105ca578063e5dd281b146105ea578063e985e9c51461060c578063f2fde38b1461061f578063ff8ca4941461063257600080fd5b8063bd26ed3314610537578063bec429db1461054a578063c4e4ae8a1461055d578063c84cfcbb14610570578063c87b56dd1461059257600080fd5b8063a1b1eede1161010a578063a1b1eede146104cb578063a22cb465146104de578063a230c524146104f1578063ae99aa3c14610504578063b88d4fde1461052457600080fd5b806370bb0a1614610483578063715018a6146104965780638423df791461049e5780638da5cb5b146104b257806395d89b41146104c357600080fd5b80631d0431fd116101df57806342842e0e116101a357806342842e0e146103eb578063504a5983146103fe578063543a9eb9146104275780635967ff8b1461044a5780636352211e1461045d57806370a082311461047057600080fd5b80631d0431fd1461036d57806323b872dd146103805780632a55205a1461039357806331062623146103c55780633363f61f146103d857600080fd5b80630f837c5a116102265780630f837c5a146102f357806314d4aecc1461030657806318160ddd1461033f5780631928b7c3146103475780631ba538cd1461035a57600080fd5b806301ffc9a71461026357806302fa7c471461028b57806306fdde03146102a0578063081812fc146102b5578063095ea7b3146102e0575b600080fd5b610276610271366004612cc0565b610660565b60405190151581526020015b60405180910390f35b61029e610299366004612cf9565b61068b565b005b6102a86106b3565b6040516102829190612d8c565b6102c86102c3366004612d9f565b610745565b6040516001600160a01b039091168152602001610282565b61029e6102ee366004612db8565b61076e565b61029e610301366004612d9f565b61077d565b610331610314366004612e8e565b8051602081830181018051600f8252928201919093012091525481565b604051908152602001610282565b61033161097e565b61029e610355366004612ec3565b610994565b600b546102c8906001600160a01b031681565b61029e61037b366004612eed565b6109ee565b61029e61038e366004612f10565b610a9a565b6103a66103a1366004612f4c565b610b25565b604080516001600160a01b039093168352602083019190915201610282565b61029e6103d3366004612f7e565b610b98565b61029e6103e6366004612d9f565b610bf8565b61029e6103f9366004612f10565b610c80565b61033161040c366004612ec3565b6001600160a01b03166000908152600e602052604090205490565b610276610435366004612ec3565b600c6020526000908152604090205460ff1681565b61029e610458366004612d9f565b610ca0565b6102c861046b366004612d9f565b610d64565b61033161047e366004612ec3565b610d6f565b61029e610491366004612fa8565b610db7565b61029e610e17565b600b5461027690600160a01b900460ff1681565b6007546001600160a01b03166102c8565b6102a8610e2b565b6103316104d9366004612fc3565b610e3a565b61029e6104ec366004612f7e565b6111c3565b6102766104ff366004612ec3565b6111ce565b610517610512366004612d9f565b61120e565b60405161028291906130e7565b61029e610532366004613160565b611539565b61029e6105453660046131d0565b611551565b61029e610558366004612d9f565b6117f9565b61029e61056b366004612d9f565b611850565b61058361057e366004612e8e565b6118a4565b60405161028293929190613227565b6102a86105a0366004612d9f565b611c4e565b6105b86105b3366004612d9f565b611c59565b6040516102829695949392919061324c565b6103316105d8366004612ec3565b600e6020526000908152604090205481565b6105fd6105f8366004612e8e565b611f06565b604051610282939291906132a2565b61027661061a3660046132c3565b6121a8565b61029e61062d366004612ec3565b6121d6565b610276610640366004612e8e565b805160208183018101805160108252928201919093012091525460ff1681565b60006001600160e01b0319821663152a902d60e11b1480610685575061068582612214565b92915050565b610693612239565b6001600160601b0316600160a01b026001600160a01b0390911617600a55565b6060600080546106c2906132ed565b80601f01602080910402602001604051908101604052809291908181526020018280546106ee906132ed565b801561073b5780601f106107105761010080835404028352916020019161073b565b820191906000526020600020905b81548152906001019060200180831161071e57829003601f168201915b5050505050905090565b600061075082612266565b506000828152600460205260409020546001600160a01b0316610685565b61077982823361229e565b5050565b610785612239565b6000610790826122ab565b6001600160a01b0316036107bf5760405162461bcd60e51b81526004016107b690613327565b60405180910390fd5b6000818152600d602052604090206009015460ff166107f05760405162461bcd60e51b81526004016107b690613355565b6000818152600d60205260408120600401805461080c906132ed565b80601f0160208091040260200160405190810160405280929190818152602001828054610838906132ed565b80156108855780601f1061085a57610100808354040283529160200191610885565b820191906000526020600020905b81548152906001019060200180831161086857829003601f168201915b5050506000858152600d6020526040812093945060049093019291506108ad90508282612bec565b6108bb600183016000612bec565b60006002830181905560038301805460ff191690556108de906004840190612bec565b50506000828152600d602052604090819020600901805460ff1916905551600f9061090a90839061338a565b90815260200160405180910390206000905560108160405161092c919061338a565b908152604051908190036020018120805460ff1916905582907f879f2ab7f172ee2f8d536629f4f9156d7d4bb907995cd81e3d4ce0dbab8cd86190610972908490612d8c565b60405180910390a25050565b6000600160095461098f91906133bc565b905090565b61099c612239565b600b80546001600160a01b038381166001600160a01b0319831681179093556040519116919082907f808ec13129987deb49ec337ab895a2cf7af16a4d0d55a51ddc054e2c7fb2515b90600090a35050565b6109f6612239565b6000610a01836122ab565b6001600160a01b031603610a275760405162461bcd60e51b81526004016107b690613327565b6000828152600d60205260409020805460ff811691839160ff19166001836003811115610a5657610a56613048565b0217905550827f236430f4b571218941e190e042fd33bb0183ee65bab331e1490515c0de630fae8284604051610a8d9291906133cf565b60405180910390a2505050565b6001600160a01b038216610ac457604051633250574960e11b8152600060048201526024016107b6565b6000610ad18383336122c6565b9050836001600160a01b0316816001600160a01b031614610b1f576040516364283d7b60e01b81526001600160a01b03808616600483015260248201849052821660448201526064016107b6565b50505050565b60008080610b32856122ab565b6001600160a01b031603610b585760405162461bcd60e51b81526004016107b690613327565b600a546001600160a01b038116925061271090610b8590600160a01b90046001600160601b0316856133ea565b610b8f9190613401565b90509250929050565b610ba0612239565b6001600160a01b0382166000818152600c6020908152604091829020805460ff191685151590811790915591519182527fccd3ed4a44faf3e09991dbb052548b2f73fdd2a8da198e2412a4dff80dacdd5b9101610972565b610c00612239565b6000610c0b826122ab565b6001600160a01b031603610c315760405162461bcd60e51b81526004016107b690613327565b6000818152600d602052604090206009015460ff16610c625760405162461bcd60e51b81526004016107b690613355565b6000908152600d60205260409020600701805460ff19166001179055565b610c9b83838360405180602001604052806000815250611539565b505050565b610ca8612239565b6000610cb3826122ab565b6001600160a01b031603610cd95760405162461bcd60e51b81526004016107b690613327565b6000818152600d602052604090206009015460ff16610d0a5760405162461bcd60e51b81526004016107b690613355565b6000818152600d60205260409081902060078101805460ff19169055905182917f012cdb3b117ab46b8ab2f8e7f38e6b3d8a51b3b3fd3188dd781ba38df5b2309e91610d599160040190613423565b60405180910390a250565b600061068582612266565b60006001600160a01b038216610d9b576040516322718ad960e21b8152600060048201526024016107b6565b506001600160a01b031660009081526003602052604090205490565b610dbf612239565b600b8054821515600160a01b0260ff60a01b199091161790556040517f2da74f794b62c41386dee79743b63d866355e0e0ae2a8d97aacb2ff5b7e1549b90610e0c90831515815260200190565b60405180910390a150565b610e1f612239565b610e2960006123ba565b565b6060600180546106c2906132ed565b600b546000906001600160a01b0316331480610e6057506007546001600160a01b031633145b610ea55760405162461bcd60e51b8152602060048201526016602482015275139bdd08185d5d1a1bdc9a5e9959081d1bc81b5a5b9d60521b60448201526064016107b6565b610ead61240c565b6001600160a01b038516610f035760405162461bcd60e51b815260206004820152601b60248201527f43616e6e6f74206d696e7420746f207a65726f2061646472657373000000000060448201526064016107b6565b6001600160a01b0385166000908152600e602052604090205415610f695760405162461bcd60e51b815260206004820152601a60248201527f4d656d62657220616c726561647920686173206120746f6b656e00000000000060448201526064016107b6565b6000825111610fba5760405162461bcd60e51b815260206004820152601960248201527f546f6b656e205552492063616e6e6f7420626520656d7074790000000000000060448201526064016107b6565b600980549081906000610fcc836134ae565b9190505550610fdb8682612436565b610fe58184612450565b6040518060c0016040528086600381111561100257611002613048565b815242602080830191909152604080830188905260016060808501829052825160c081018452600060a080830182815283528551808801875282815283880152828601829052928201819052845180870186528181526080838101919091528701919091529401849052858452600d9092529091208251815491929091839160ff199091169083600381111561109a5761109a613048565b021790555060208201516001820155604082015160028201906110bd908261350d565b50606082015160038201805460ff191691151591909117905560808201518051600483019081906110ee908261350d565b5060208201516001820190611103908261350d565b5060408201516002820155606082015160038201805460ff19169115159190911790556080820151600482019061113a908261350d565b50505060a091909101516009909101805460ff19169115159190911790556001600160a01b0386166000818152600e6020526040908190208390555182907f520483995c63af27f2b1c21cb5c2d5138f865c88a39aeba56a8756453df44acb906111a790899089906135cd565b60405180910390a390506111bb6001600855565b949350505050565b6107793383836124a0565b6001600160a01b0381166000908152600e6020526040812054801580159061120757506000818152600d602052604090206003015460ff165b9392505050565b611216612c26565b6000611221836122ab565b6001600160a01b0316036112475760405162461bcd60e51b81526004016107b690613327565b6000828152600d602052604090819020815160c081019092528054829060ff16600381111561127857611278613048565b600381111561128957611289613048565b8152602001600182015481526020016002820180546112a7906132ed565b80601f01602080910402602001604051908101604052809291908181526020018280546112d3906132ed565b80156113205780601f106112f557610100808354040283529160200191611320565b820191906000526020600020905b81548152906001019060200180831161130357829003601f168201915b5050509183525050600382015460ff16151560208201526040805160a081018252600484018054929093019290918290829061135b906132ed565b80601f0160208091040260200160405190810160405280929190818152602001828054611387906132ed565b80156113d45780601f106113a9576101008083540402835291602001916113d4565b820191906000526020600020905b8154815290600101906020018083116113b757829003601f168201915b505050505081526020016001820180546113ed906132ed565b80601f0160208091040260200160405190810160405280929190818152602001828054611419906132ed565b80156114665780601f1061143b57610100808354040283529160200191611466565b820191906000526020600020905b81548152906001019060200180831161144957829003601f168201915b505050918352505060028201546020820152600382015460ff161515604082015260048201805460609092019161149c906132ed565b80601f01602080910402602001604051908101604052809291908181526020018280546114c8906132ed565b80156115155780601f106114ea57610100808354040283529160200191611515565b820191906000526020600020905b8154815290600101906020018083116114f857829003601f168201915b5050509190925250505081526009919091015460ff16151560209091015292915050565b611544848484610a9a565b610b1f338585858561253f565b611559612239565b6000611564856122ab565b6001600160a01b03160361158a5760405162461bcd60e51b81526004016107b690613327565b60008351116115db5760405162461bcd60e51b815260206004820152601760248201527f436172642049442063616e6e6f7420626520656d70747900000000000000000060448201526064016107b6565b6010836040516115eb919061338a565b9081526040519081900360200190205460ff161561164b5760405162461bcd60e51b815260206004820152601760248201527f4e4643206361726420616c72656164792065786973747300000000000000000060448201526064016107b6565b6000848152600d602052604090206009015460ff16156116ad5760405162461bcd60e51b815260206004820152601e60248201527f4d656d62657220616c72656164792068617320616e204e46432063617264000060448201526064016107b6565b6040805160a0810182528481526020808201859052428284015260016060830152608082018490526000878152600d90915291909120815160049091019081906116f7908261350d565b506020820151600182019061170c908261350d565b5060408201516002820155606082015160038201805460ff191691151591909117905560808201516004820190611743908261350d565b5050506000848152600d602052604090819020600901805460ff19166001179055518490600f9061177590869061338a565b9081526020016040518091039020819055506001601084604051611799919061338a565b908152604051908190036020018120805492151560ff199093169290921790915584907fad6d9c64a14d0fe26fe397f694c96f78a370d5e77d522989dfd8e876fed0dff7906117eb90869086906135ed565b60405180910390a250505050565b611801612239565b600061180c826122ab565b6001600160a01b0316036118325760405162461bcd60e51b81526004016107b690613327565b6000908152600d60205260409020600301805460ff19166001179055565b611858612239565b6000611863826122ab565b6001600160a01b0316036118895760405162461bcd60e51b81526004016107b690613327565b6000908152600d60205260409020600301805460ff19169055565b60008060006010846040516118b9919061338a565b9081526040519081900360200190205460ff166118de57506000915081905080611c47565b6000600f856040516118f0919061338a565b9081526040805160209281900383018120546000818152600d90945282842060c083019093528254909450909190829060ff16600381111561193457611934613048565b600381111561194557611945613048565b815260200160018201548152602001600282018054611963906132ed565b80601f016020809104026020016040519081016040528092919081815260200182805461198f906132ed565b80156119dc5780601f106119b1576101008083540402835291602001916119dc565b820191906000526020600020905b8154815290600101906020018083116119bf57829003601f168201915b5050509183525050600382015460ff16151560208201526040805160a0810182526004840180549290930192909182908290611a17906132ed565b80601f0160208091040260200160405190810160405280929190818152602001828054611a43906132ed565b8015611a905780601f10611a6557610100808354040283529160200191611a90565b820191906000526020600020905b815481529060010190602001808311611a7357829003601f168201915b50505050508152602001600182018054611aa9906132ed565b80601f0160208091040260200160405190810160405280929190818152602001828054611ad5906132ed565b8015611b225780601f10611af757610100808354040283529160200191611b22565b820191906000526020600020905b815481529060010190602001808311611b0557829003601f168201915b505050918352505060028201546020820152600382015460ff1615156040820152600482018054606090920191611b58906132ed565b80601f0160208091040260200160405190810160405280929190818152602001828054611b84906132ed565b8015611bd15780601f10611ba657610100808354040283529160200191611bd1565b820191906000526020600020905b815481529060010190602001808311611bb457829003601f168201915b5050509190925250505081526009919091015460ff16151560209091015260608101519091501580611c0557508060a00151155b80611c165750806080015160600151155b15611c2d5760008060009450945094505050611c47565b6000611c3883610d64565b91516001965091945090925050505b9193909250565b60606106858261266a565b600d6020526000908152604090208054600182015460028301805460ff909316939192611c85906132ed565b80601f0160208091040260200160405190810160405280929190818152602001828054611cb1906132ed565b8015611cfe5780601f10611cd357610100808354040283529160200191611cfe565b820191906000526020600020905b815481529060010190602001808311611ce157829003601f168201915b5050505050908060030160009054906101000a900460ff1690806004016040518060a0016040529081600082018054611d36906132ed565b80601f0160208091040260200160405190810160405280929190818152602001828054611d62906132ed565b8015611daf5780601f10611d8457610100808354040283529160200191611daf565b820191906000526020600020905b815481529060010190602001808311611d9257829003601f168201915b50505050508152602001600182018054611dc8906132ed565b80601f0160208091040260200160405190810160405280929190818152602001828054611df4906132ed565b8015611e415780601f10611e1657610100808354040283529160200191611e41565b820191906000526020600020905b815481529060010190602001808311611e2457829003601f168201915b505050918352505060028201546020820152600382015460ff1615156040820152600482018054606090920191611e77906132ed565b80601f0160208091040260200160405190810160405280929190818152602001828054611ea3906132ed565b8015611ef05780601f10611ec557610100808354040283529160200191611ef0565b820191906000526020600020905b815481529060010190602001808311611ed357829003601f168201915b5050509190925250505060099091015460ff1686565b6000806060601084604051611f1b919061338a565b9081526040519081900360200190205460ff16611f7a5760405162461bcd60e51b815260206004820152601760248201527f4e4643206361726420646f6573206e6f7420657869737400000000000000000060448201526064016107b6565b600f84604051611f8a919061338a565b90815260200160405180910390205492506000600d60008581526020019081526020016000206004016040518060a0016040529081600082018054611fce906132ed565b80601f0160208091040260200160405190810160405280929190818152602001828054611ffa906132ed565b80156120475780601f1061201c57610100808354040283529160200191612047565b820191906000526020600020905b81548152906001019060200180831161202a57829003601f168201915b50505050508152602001600182018054612060906132ed565b80601f016020809104026020016040519081016040528092919081815260200182805461208c906132ed565b80156120d95780601f106120ae576101008083540402835291602001916120d9565b820191906000526020600020905b8154815290600101906020018083116120bc57829003601f168201915b505050918352505060028201546020820152600382015460ff161515604082015260048201805460609092019161210f906132ed565b80601f016020809104026020016040519081016040528092919081815260200182805461213b906132ed565b80156121885780601f1061215d57610100808354040283529160200191612188565b820191906000526020600020905b81548152906001019060200180831161216b57829003601f168201915b505050919092525050506060810151608090910151949690955092505050565b6001600160a01b03918216600090815260056020908152604080832093909416825291909152205460ff1690565b6121de612239565b6001600160a01b03811661220857604051631e4fbdf760e01b8152600060048201526024016107b6565b612211816123ba565b50565b60006001600160e01b03198216632483248360e11b1480610685575061068582612773565b6007546001600160a01b03163314610e295760405163118cdaa760e01b81523360048201526024016107b6565b600080612272836122ab565b90506001600160a01b03811661068557604051637e27328960e01b8152600481018490526024016107b6565b610c9b83838360016127c3565b6000908152600260205260409020546001600160a01b031690565b6000806122d2846122ab565b90506001600160a01b038316156122ee576122ee8184866128c9565b6001600160a01b0381161561232c5761230b6000856000806127c3565b6001600160a01b038116600090815260036020526040902080546000190190555b6001600160a01b0385161561235b576001600160a01b0385166000908152600360205260409020805460010190555b60008481526002602052604080822080546001600160a01b0319166001600160a01b0389811691821790925591518793918516917fddf252ad1be2c89b69c2b068fc378daa952ba7f163c4a11628f55a4df523b3ef91a4949350505050565b600780546001600160a01b038381166001600160a01b0319831681179093556040519116919082907f8be0079c531659141344cd1fd0a4f28419497f9722a3daafe3b4186f6b6457e090600090a35050565b60026008540361242f57604051633ee5aeb560e01b815260040160405180910390fd5b6002600855565b61077982826040518060200160405280600081525061292d565b6000828152600660205260409020612468828261350d565b506040518281527ff8e1a15aba9398e019f0b49df1a4fde98ee17ae345cb5f6b5e2c27f5033e8ce79060200160405180910390a15050565b6001600160a01b0382166124d257604051630b61174360e31b81526001600160a01b03831660048201526024016107b6565b6001600160a01b03838116600081815260056020908152604080832094871680845294825291829020805460ff191686151590811790915591519182527f17307eab39ab6107e8899845ad3d59bd9653f200f220920489ca2b5937696c31910160405180910390a3505050565b6001600160a01b0383163b1561266357604051630a85bd0160e11b81526001600160a01b0384169063150b7a0290612581908890889087908790600401613612565b6020604051808303816000875af19250505080156125bc575060408051601f3d908101601f191682019092526125b99181019061364f565b60015b612625573d8080156125ea576040519150601f19603f3d011682016040523d82523d6000602084013e6125ef565b606091505b50805160000361261d57604051633250574960e11b81526001600160a01b03851660048201526024016107b6565b805160208201fd5b6001600160e01b03198116630a85bd0160e11b1461266157604051633250574960e11b81526001600160a01b03851660048201526024016107b6565b505b5050505050565b606061267582612266565b506000828152600660205260408120805461268f906132ed565b80601f01602080910402602001604051908101604052809291908181526020018280546126bb906132ed565b80156127085780601f106126dd57610100808354040283529160200191612708565b820191906000526020600020905b8154815290600101906020018083116126eb57829003601f168201915b50505050509050600061272660408051602081019091526000815290565b90508051600003612738575092915050565b81511561276a57808260405160200161275292919061366c565b60405160208183030381529060405292505050919050565b6111bb84612945565b60006001600160e01b031982166380ac58cd60e01b14806127a457506001600160e01b03198216635b5e139f60e01b145b8061068557506301ffc9a760e01b6001600160e01b0319831614610685565b80806127d757506001600160a01b03821615155b156128995760006127e784612266565b90506001600160a01b038316158015906128135750826001600160a01b0316816001600160a01b031614155b8015612826575061282481846121a8565b155b1561284f5760405163a9fbf51f60e01b81526001600160a01b03841660048201526024016107b6565b81156128975783856001600160a01b0316826001600160a01b03167f8c5be1e5ebec7d5bd14f71427d1e84f3dd0314c0f7b2291e5b200ac8c7c3b92560405160405180910390a45b505b5050600090815260046020526040902080546001600160a01b0319166001600160a01b0392909216919091179055565b6128d48383836129b9565b610c9b576001600160a01b03831661290257604051637e27328960e01b8152600481018290526024016107b6565b60405163177e802f60e01b81526001600160a01b0383166004820152602481018290526044016107b6565b6129378383612a1c565b610c9b33600085858561253f565b606061295082612266565b50600061296860408051602081019091526000815290565b905060008151116129885760405180602001604052806000815250611207565b8061299284612a81565b6040516020016129a392919061366c565b6040516020818303038152906040529392505050565b60006001600160a01b038316158015906111bb5750826001600160a01b0316846001600160a01b031614806129f357506129f384846121a8565b806111bb5750506000908152600460205260409020546001600160a01b03908116911614919050565b6001600160a01b038216612a4657604051633250574960e11b8152600060048201526024016107b6565b6000612a54838360006122c6565b90506001600160a01b03811615610c9b576040516339e3563760e11b8152600060048201526024016107b6565b60606000612a8e83612b14565b600101905060008167ffffffffffffffff811115612aae57612aae612de2565b6040519080825280601f01601f191660200182016040528015612ad8576020820181803683370190505b5090508181016020015b600019016f181899199a1a9b1b9c1cb0b131b232b360811b600a86061a8153600a8504945084612ae257509392505050565b60008072184f03e93ff9f4daa797ed6e38ed64bf6a1f0160401b8310612b535772184f03e93ff9f4daa797ed6e38ed64bf6a1f0160401b830492506040015b6d04ee2d6d415b85acef81000000008310612b7f576d04ee2d6d415b85acef8100000000830492506020015b662386f26fc100008310612b9d57662386f26fc10000830492506010015b6305f5e1008310612bb5576305f5e100830492506008015b6127108310612bc957612710830492506004015b60648310612bdb576064830492506002015b600a83106106855760010192915050565b508054612bf8906132ed565b6000825580601f10612c08575050565b601f0160209004906000526020600020908101906122119190612c91565b6040805160c0810190915280600081526020016000815260200160608152602001600015158152602001612c846040518060a00160405280606081526020016060815260200160008152602001600015158152602001606081525090565b8152600060209091015290565b5b80821115612ca65760008155600101612c92565b5090565b6001600160e01b03198116811461221157600080fd5b600060208284031215612cd257600080fd5b813561120781612caa565b80356001600160a01b0381168114612cf457600080fd5b919050565b60008060408385031215612d0c57600080fd5b612d1583612cdd565b915060208301356001600160601b0381168114612d3157600080fd5b809150509250929050565b60005b83811015612d57578181015183820152602001612d3f565b50506000910152565b60008151808452612d78816020860160208601612d3c565b601f01601f19169290920160200192915050565b6020815260006112076020830184612d60565b600060208284031215612db157600080fd5b5035919050565b60008060408385031215612dcb57600080fd5b612dd483612cdd565b946020939093013593505050565b634e487b7160e01b600052604160045260246000fd5b600067ffffffffffffffff80841115612e1357612e13612de2565b604051601f8501601f19908116603f01168101908282118183101715612e3b57612e3b612de2565b81604052809350858152868686011115612e5457600080fd5b858560208301376000602087830101525050509392505050565b600082601f830112612e7f57600080fd5b61120783833560208501612df8565b600060208284031215612ea057600080fd5b813567ffffffffffffffff811115612eb757600080fd5b6111bb84828501612e6e565b600060208284031215612ed557600080fd5b61120782612cdd565b803560048110612cf457600080fd5b60008060408385031215612f0057600080fd5b82359150610b8f60208401612ede565b600080600060608486031215612f2557600080fd5b612f2e84612cdd565b9250612f3c60208501612cdd565b9150604084013590509250925092565b60008060408385031215612f5f57600080fd5b50508035926020909101359150565b80358015158114612cf457600080fd5b60008060408385031215612f9157600080fd5b612f9a83612cdd565b9150610b8f60208401612f6e565b600060208284031215612fba57600080fd5b61120782612f6e565b60008060008060808587031215612fd957600080fd5b612fe285612cdd565b9350612ff060208601612ede565b9250604085013567ffffffffffffffff8082111561300d57600080fd5b61301988838901612e6e565b9350606087013591508082111561302f57600080fd5b5061303c87828801612e6e565b91505092959194509250565b634e487b7160e01b600052602160045260246000fd5b6004811061307c57634e487b7160e01b600052602160045260246000fd5b9052565b6000815160a0845261309560a0850182612d60565b9050602083015184820360208601526130ae8282612d60565b91505060408301516040850152606083015115156060850152608083015184820360808601526130de8282612d60565b95945050505050565b602081526130f960208201835161305e565b602082015160408201526000604083015160c0606084015261311e60e0840182612d60565b90506060840151151560808401526080840151601f198483030160a08501526131478282613080565b91505060a0840151151560c08401528091505092915050565b6000806000806080858703121561317657600080fd5b61317f85612cdd565b935061318d60208601612cdd565b925060408501359150606085013567ffffffffffffffff8111156131b057600080fd5b8501601f810187136131c157600080fd5b61303c87823560208401612df8565b600080600080608085870312156131e657600080fd5b84359350602085013567ffffffffffffffff8082111561320557600080fd5b61321188838901612e6e565b9450604087013591508082111561300d57600080fd5b83151581526001600160a01b0383166020820152606081016111bb604083018461305e565b613256818861305e565b85602082015260c06040820152600061327260c0830187612d60565b8515156060840152828103608084015261328c8186613080565b91505082151560a0830152979650505050505050565b83815282151560208201526060604082015260006130de6060830184612d60565b600080604083850312156132d657600080fd5b6132df83612cdd565b9150610b8f60208401612cdd565b600181811c9082168061330157607f821691505b60208210810361332157634e487b7160e01b600052602260045260246000fd5b50919050565b602080825260149082015273151bdad95b88191bd95cc81b9bdd08195e1a5cdd60621b604082015260600190565b6020808252818101527f4d656d62657220646f6573206e6f74206861766520616e204e46432063617264604082015260600190565b6000825161339c818460208701612d3c565b9190910192915050565b634e487b7160e01b600052601160045260246000fd5b81810381811115610685576106856133a6565b604081016133dd828561305e565b611207602083018461305e565b8082028115828204841417610685576106856133a6565b60008261341e57634e487b7160e01b600052601260045260246000fd5b500490565b6000602080835260008454613437816132ed565b808487015260406001808416600081146134585760018114613472576134a0565b60ff1985168984015283151560051b8901830195506134a0565b896000528660002060005b858110156134985781548b820186015290830190880161347d565b8a0184019650505b509398975050505050505050565b6000600182016134c0576134c06133a6565b5060010190565b601f821115610c9b57600081815260208120601f850160051c810160208610156134ee5750805b601f850160051c820191505b81811015612661578281556001016134fa565b815167ffffffffffffffff81111561352757613527612de2565b61353b8161353584546132ed565b846134c7565b602080601f83116001811461357057600084156135585750858301515b600019600386901b1c1916600185901b178555612661565b600085815260208120601f198616915b8281101561359f57888601518255948401946001909101908401613580565b50858210156135bd5787850151600019600388901b60f8161c191681555b5050505050600190811b01905550565b6135d7818461305e565b6040602082015260006111bb6040830184612d60565b6040815260006136006040830185612d60565b82810360208401526130de8185612d60565b6001600160a01b038581168252841660208201526040810183905260806060820181905260009061364590830184612d60565b9695505050505050565b60006020828403121561366157600080fd5b815161120781612caa565b6000835161367e818460208801612d3c565b835190830190613692818360208801612d3c565b0194935050505056fea264697066735822122016fc176007172536f15d4f4f3c575ad75e3f44e0fac2956becd0d794f0aa718c64736f6c634300081400334c616b652053746f636b746f6e20596163687420436c7562204d656d62657273686970",
  "linkReferences": {},
  "deployedLinkReferences": {}
}